:020000040000FA
:060000000A128A110C280F
:10000800FE00030EF1000A08F2000A128A11D52B2D
:100018000A128A110F28F901FA0183120313B40195
:10002800B501B601B70183010A128A1109298312A1
:100038000313AC00A71B21282328013024280030F3
:10004800A9002908AE002E0803192B282C283228CD
:10005800A609A709A60A0319A70A32282508A9008C
:100068002908F6002C080A128A112E240A128A116D
:10007800103083120313AF002730B0000530A900F9
:100088002908AD007628831203133008F6002F08DC
:10009800F5002708F8002608F7000A128A11192225
:1000A8000A128A1175087604031D5B285C289028BB
:1000B800013083120313AD02622890280A30F5003C
:1000C8000030F6003008F8002F08F7000A128A11ED
:1000D80019220A128A11760883120313B0007508D0
:1000E800AF0076283008803AFF0080307F02031D79
:1000F8007F2801302F020318822883284728902858
:10010800902820300A128A116D230A128A110130B0
:1001180083120313A8029028831203132D082E07B5
:10012800A900AA01AA0D2A08803AAB0080302B0248
:10013800031DA028280829020318A328A428AE28EC
:1001480002308312031328020318AB28AC28852831
:10015800AE28AE28831203132E080319B428B52835
:10016800BC282D300A128A116D230A128A11BC2864
:10017800831203133008F6002F08F5002708F8004B
:100188002608F7000A128A1119220A128A1175081C
:10019800303E0A128A116D230A128A118312031340
:1001A8003008F4002F08F3002708F6002608F500A9
:1001B8000A128A118C220A128A11740883120313F4
:1001C800A7007308A6000A30F5000030F6003008D2
:1001D800F8002F08F7000A128A1119220A128A1148
:1001E800760883120313B0007508AF003008803A10
:1001F800FF0080307F02031D032901302F020318FE
:1002080006290729BC28082908000A128A11F122A0
:100218000A128A110A128A1152240A128A110A121F
:100228008A11B8230A128A110A128A1167240A123B
:100238008A110030F6000030F5000030F40000307C
:10024800F3000A128A115A240A128A110030F600A1
:100258000030F5002730F4001030F3000A128A113C
:100268006C240A128A1183120313A0010130B10011
:100278003108A10000300A128A1132230A128A11A9
:1002880045290A3083120313B1003108A5000A1268
:100298008A114A240A128A11740883120313A700C8
:1002A8007308A6000530B2003208A80000300A1210
:1002B8008A111B200A128A110A128A114A240A1268
:1002C8008A11730883120313B1007408B200023054
:1002D800F5000030F6000A128A1161240A128A1108
:1002E8007408F8007308F7000A128A1119220A1212
:1002F8008A11831203133208803AB3007608803AD1
:100308003302031D892975083102031C8C298D29A4
:10031800942901300A128A1141240A128A114529A6
:1003280000300A128A1141240A128A1145294529E6
:1003380045290A128A110C28F500831203130812A2
:100348007508F30004300310F30CFF3E031DA729C2
:1003580008087306F03973068800881275030319B4
:10036800B629B729BE2902307506031DBC29BD2947
:10037800C829BE290330F4009730F300F30BC229D3
:10038800F40BC229C729CD290D30F300F30BCA2974
:10039800CD29831203138816F0307505F300203039
:1003A8007306031DD829D929F02908127508F30006
:1003B80004300310F30CFF3E031DDD290808730603
:1003C800F0397306880088120D30F300F30BEA2920
:1003D800831203138816F02908120F307505F300ED
:1003E80008087306F0397306880088127503031924
:1003F800FE29FF29062A02307506031D042A052A4C
:10040800102A062A0330F4009730F300F30B0A2A67
:10041800F40B0A2A0F2A152A0D30F300F30B122ABF
:10042800152A831203138816080083120313A201E6
:10043800F61F1F2A202A282AF509F609F50A0319A2
:10044800F60AA201A20A282AF81F2B2A2C2A362AE1
:10045800F709F809F70A0319F80A0130A00020087B
:10046800A206362AA301A4017508760403193D2AB9
:100478003E2A7B2AA101A10A4D2A01300310F50D5D
:10048800F60DFF3E031D422A0130A0002008A107F7
:100498004D2AF61F502A512A412A532A532A01303D
:1004A8000310A30DA40DFF3E031D542A76087802FD
:1004B800031D602A75087702031C632A642A6C2AC4
:1004C8007508F7027608031CF803F80223146C2A4F
:1004D80001300310F60CF50CFF3E031D6D2A0130A8
:1004E800A102031D782A792A532A7B2A7B2A22080B
:1004F80003197F2A802A862AA309A409A30A0319B3
:10050800A40A862A2408F6002308F5008B2A080086
:1005180083120313A101F61F922A932A9B2AF50935
:10052800F609F50A0319F60AA101A10A9B2AF41F84
:100538009E2A9F2AA52AF309F409F30A0319F40A43
:10054800A52A730874040319AA2AAB2AE02AA00171
:10055800A00ABA2A01300310F30DF40DFF3E031D63
:10056800AF2A0130F7007708A007BA2AF41FBD2A7E
:10057800BE2AAE2AC02AC02A74087602031DC62ADB
:1005880073087502031CC92ACA2AD12A7308F502FE
:100598007408031CF603F602D12A01300310F40C88
:1005A800F30CFF3E031DD22A0130A002031DDD2AF1
:1005B800DE2AC02AE02AE02A21080319E42AE52ACB
:1005C800EB2AF509F609F50A0319F60AEB2A760863
:1005D800F4007508F300F02A08006430F3000030D6
:1005E800F4000A128A1117240A128A1183160313B7
:1005F800081088100811881108128812081788171F
:100608006430F3000030F4000A128A1117240A1229
:100618008A1183120313881628300A128A11A0211E
:100628000A128A110C300A128A11A0210A128A11A0
:1006380001300A128A11A0210A128A1102300A1204
:100648008A11A0210A128A116430F3000030F400E4
:100658000A128A1117240A128A1108008312031336
:10066800A4002008A2002208A3002008A200220853
:10067800F60024080A128A112E240A128A115D2B08
:1006880083120313210884000A128A1100240A1213
:100698008A110A128A116D230A128A1101308312F3
:1006A8000313A2002208A1070130A2002208A30711
:1006B8005D2B83120313210884000A128A11002477
:1006C8000A128A11003A031D6A2B6B2B442B6C2BE0
:1006D8000800F4008312031308167408F3000430AA
:1006E8000310F30CFF3E031D742B08087306F03942
:1006F8007306880088120D30F300F30B812B8312E8
:100708000313881608160F307405F30008087306DB
:10071800F0397306880088120D30F300F30B922B22
:100728008312031388160800FC30831203138F000A
:1007380018308E000130B4070318B50A0030B50729
:100748003508803AF0007A08803A7002031DAE2B13
:1007580079083402031CB12BB22BB72B8312031375
:10076800B401B501B72B08008B1383120313901043
:100778009012101210130030F6000030F50003300C
:10078800F400E830F3000A128A116C240A128A1164
:100798008312031310140B17831603130C148B17EF
:1007A8000800831603130C1CDA2BDB2BE82B8312AF
:1007B80003130C1CE02BE12BE82B0C100A128A11F6
:1007C80098230A128A11E82B72088A00710E830096
:0607D800FE0E7E0E09007A
:1008000004308A000408840A8207003443346F34B9
:100810006E347434613464346F3472343A34203456
:100820002034203420342034203420340034262C4A
:10083000C730F5001B2CF50B1A2C1E2C1F2C013079
:10084000F3020030031CF403F402262C7308740432
:10085000031D2B2C2C2C182C2D2C0800F8007808AC
:10086000F70006300310F70DFF3E031D322C76080B
:1008700077077F39803E0A128A11A0210A128A1155
:100880000800F300730C83120313031C871303186F
:1008900087170800831203133508F4003408F300A7
:1008A000512C080083120313981387138316031324
:1008B00087130800740883120313B5007308B4008B
:1008C00008007A08F4007908F300662C0800831207
:1008D000031307086B2C08007408FA007308F9006A
:0208E00008000E
:02400E00D4EFED
:00000001FF
