:020000040000FA
:060000000A128A110C280F
:10000800FE00030EF1000A08F2000A128A11932B6F
:100018000A128A110F28F901FA0183120313B20197
:10002800B301B401B50183010A128A115A2A831255
:100038000313AB00A61B21282328013024280030F5
:10004800A8002808AD002D0803192B282C283228D1
:10005800A509A609A50A0319A60A32282408A80092
:100068002808F6002B080A128A11DB230A128A11C3
:10007800103083120313AE002730AF000530A800FC
:100088002808AC007628831203132F08F4002E08E2
:10009800F3002608F6002508F5000A128A118221C5
:1000A8000A128A1173087404031D5B285C289028BF
:1000B800013083120313AC02622890280A30F3003F
:1000C8000030F4002F08F6002E08F5000A128A11F5
:1000D80082210A128A11740883120313AF0073086D
:1000E800AE0076282F08803AFF0080307F02031D7B
:1000F8007F2801302E020318822883284728902859
:10010800902820300A128A112B230A128A110130F2
:1001180083120313A7029028831203132C082D07B8
:10012800A800A901A90D2908803AAA0080302A024E
:10013800031DA028270828020318A328A428AE28EE
:1001480002308312031327020318AB28AC28852832
:10015800AE28AE28831203132D080319B428B52836
:10016800BC282D300A128A112B230A128A11BC28A6
:10017800831203132F08F4002E08F3002608F60054
:100188002508F5000A128A1182210A128A117308B9
:10019800303E0A128A112B230A128A118312031382
:1001A8002F08F4002E08F3002608F6002508F500AD
:1001B8000A128A11F5210A128A117408831203138C
:1001C800A6007308A5000A30F3000030F4002F08D9
:1001D800F6002E08F5000A128A1182210A128A11E5
:1001E800740883120313AF007308AE002F08803A17
:1001F800FF0080307F02031D032901302E020318FF
:1002080006290729BC2808290800F50083120313CA
:1002180008127508F30004300310F30CFF3E031DA9
:10022800102908087306F0397306880088127503C8
:1002380003191F292029272902307506031D25299E
:100248002629312927290330F4009730F300F30BCE
:100258002B29F40B2B29302936290D30F300F30B09
:1002680033293629831203138816F0307505F300F5
:1002780020307306031D412942295929081275089F
:10028800F30004300310F30CFF3E031D4629080851
:100298007306F0397306880088120D30F300F30BEB
:1002A8005329831203138816592908120F3075052C
:1002B800F30008087306F03973068800881275037E
:1002C8000319672968296F2902307506031D6D29EE
:1002D8006E2979296F290330F4009730F300F30B66
:1002E8007329F40B732978297E290D30F300F30B59
:1002F8007B297E29831203138816080083120313AF
:10030800A101F41F882989299129F309F409F30A1D
:100318000319F40AA101A10A9129F61F9429952924
:100328009F29F509F609F50A0319F60A0130F700BD
:100338007708A1069F29A201A30173087404031971
:10034800A629A729E429A001A00AB629013003108B
:10035800F30DF40DFF3E031DAB290130F7007708BC
:10036800A007B629F41FB929BA29AA29BC29BC298A
:1003780001300310A20DA30DFF3E031DBD29740813
:100388007602031DC92973087502031CCC29CD29DF
:10039800D5297308F5027408031CF603F602221423
:1003A800D52901300310F40CF30CFF3E031DD629A8
:1003B8000130A002031DE129E229BC29E429E4292E
:1003C80021080319E829E929EF29A209A309A20AA2
:1003D8000319A30AEF292308F4002208F300F429DB
:1003E800080083120313A101F61FFB29FC29042A24
:1003F800F509F609F50A0319F60AA101A10A042A62
:10040800F41F072A082A0E2AF309F409F30A031924
:10041800F40A0E2A730874040319132A142A492AA1
:10042800A001A00A232A01300310F30DF40DFF3EAA
:10043800031D182A0130F7007708A007232AF41FA4
:10044800262A272A172A292A292A74087602031D08
:100458002F2A73087502031C322A332A3A2A730892
:10046800F5027408031CF603F6023A2A0130031059
:10047800F40CF30CFF3E031D3B2A0130A002031DC0
:10048800462A472A292A492A492A210803194D2A8E
:100498004E2A542AF509F609F50A0319F60A542AC8
:1004A8007608F4007508F300592A08000A128A1120
:1004B800AF220A128A110A128A11EE230A128A112D
:1004C8000A128A1176230A128A110A128A1104243E
:1004D8000A128A110030F6000030F5000330F400EB
:1004E800E830F3000A128A11F6230A128A11003042
:1004F800F6000030F5000330F400E830F3000A128B
:100508008A11FD230A128A1183120313A0010130F4
:10051800B0003008A10000300A128A11F0220A1235
:100528008A11962A0A3083120313B0003008A400F7
:100538007A08A6007908A5000530B1003108A7009F
:1005480000300A128A111B200A128A11962A962A4A
:100558000A128A110C286430F3000030F4000A12E1
:100568008A11C4230A128A118316031308108810EB
:100578000811881108128812081788176430F300C8
:100588000030F4000A128A11C4230A128A11831255
:100598000313881628300A128A1109210A128A11AF
:1005A8000C300A128A1109210A128A1101300A1222
:1005B8008A1109210A128A1102300A128A110921A4
:1005C8000A128A116430F3000030F4000A128A110A
:1005D800C4230A128A11080083120313A4002008F6
:1005E800A2002208A3002008A2002208F60024087E
:1005F8000A128A11DB230A128A111B2B8312031396
:10060800210884000A128A11AD230A128A110A12DB
:100618008A112B230A128A11013083120313A200B4
:100628002208A1070130A2002208A3071B2B83126E
:100638000313210884000A128A11AD230A128A11B1
:10064800003A031D282B292B022B2A2B0800F40023
:100658008312031308167408F30004300310F30C14
:10066800FF3E031D322B08087306F0397306880015
:1006780088120D30F300F30B3F2B831203138816F7
:1006880008160F307405F30008087306F03973066E
:10069800880088120D30F300F30B502B83120313DC
:1006A80088160800FC30831203138F0018308E0060
:1006B8000130B2070318B30A0030B3073308803A91
:1006C800F0003508803A7002031D6C2B34083202A2
:1006D800031C6F2B702B752B83120313B201B3010C
:1006E800752B08008B1383120313901090121012AD
:1006F80010130030F6000030F5000330F400E83045
:10070800F3000A128A11FD230A128A1183120313B5
:1007180010140B17831603130C148B170800831679
:1007280003130C1C982B992BA62B831203130C1C58
:100738009E2B9F2BA62B0C100A128A1156230A12E5
:100748008A11A62B72088A00710E8300FE0E7E0E97
:10075800090003308A000408840A820700344334FD
:100768006F346E347434613464346F3472343A34B0
:1007780020342034203420342034203420340034F1
:10078800D32BC730F500C82BF50BC72BCB2BCC2BA5
:100798000130F3020030031CF403F402D32B730876
:1007A8007404031DD82BD92BC52BDA2B0800F800AD
:1007B8007808F70006300310F70DFF3E031DDF2B06
:1007C800760877077F39803E0A128A1109210A12B2
:1007D8008A110800831203139813871383160313CF
:1007E80087130800740883120313B3007308B20058
:1007F8000800740883120313B5007308B4000800D6
:0A080800831203130708082C0800F0
:02400E00D4EFED
:00000001FF
